:02008D00410030
:100003007F381200517F0C1200517F061200517F7E
:0B001300011200517F647E00020038E3
:100051008F90C2A0C2A1D2A2C2A27F017E000200E3
:010061003866
:100062008F90D2A0C2A1D2A2C2A27F017E000200C2
:010072003855
:02001E008B084D
:10002000EFBD01062480F509800424C0F509AF095D
:08003000120051AF080200624A
:10003800D3EF9400EE64809480400DE4FD0DBD0282
:08004800FCEF1F70EB1E80E8C5
:01005000228D
:0E0073001200037B8D7D01E4FF12001E80FE53
:030000000200817A
:0C008100787FE4F6D8FD75810902007359
:00000001FF
