:100151001408003F0006005B004F0066006D007D43
:060161000007007F006FA3
:0B012E007D017C007E0012008F7F012D
:10013900C3EE64809480400F7D027CEFDCFEDDFC21
:07014900EF1F70EC1E80E9BE
:01015000228C
:10008F00EE705BEF14B4080050549000A775F003A6
:10009F00A4C58325F0C583730200BF0200C302000D
:1000AF00C70200CB0200CF0200D70200DF0200E739
:1000BF00D2A4800ED2A48012D2A48016D2A4801A09
:1000CF00C2A4D2A3D2A28016C2A4D2A3C2A2800E6F
:1000DF00C2A4C2A3D2A28006C2A4C2A3C2A2ED250B
:0900EF00E02408F808E6F580227F
:1000F8007D017C007F027E0012008F1F1201397F74
:100108000312012E7D047C007F041201327D057CE0
:10011800007F051201327F0612012E7D047C007FCC
:060128000712013280CA3B
:03000000020003F8
:0C000300787FE4F6D8FD75811B02004AEE
:10000F000200F8E493A3F8E493A34003F68001F20F
:10001F0008DFF48029E493A3F85407240CC8C333F2
:10002F00C4540F4420C8834004F456800146F6DFC1
:10003F00E4800B0102040810204080900151E47EFF
:10004F00019360BCA3FF543F30E509541FFEE493B6
:10005F00A360010ECF54C025E060A840B8E493A37D
:10006F00FAE493A3F8E493A3C8C582C8CAC583CAA8
:10007F00F0A3C8C582C8CAC583CADFE9DEE780BE60
:010167000097
:00000001FF
